:020000040000FA
:1000000048120020ED0A0000B54A0000D90A00009D
:10001000D90A0000D90A0000D90A0000D90A000054
:10002000000000000000000000000000910B000034
:10003000D90A000000000000D90A0000D90A000017
:10004000E90C0000E90C0000E90C0000E90C0000DC
:10005000E90C0000E90C0000E90C0000E90C0000CC
:100060002112000001120000E90C0000E90C000060
:10007000E90C0000E90C0000E90C0000E90C0000AC
:10008000E90C0000E90C0000E90C0000E90C00009C
:10009000E90C0000E90C0000E90C0000E90C00008C
:1000A000E90C0000E90C0000E90C0000E90C00007C
:1000B000E90C0000E90C0000E90C0000E90C00006C
:1000C000E90C0000E90C0000E90C0000E90C00005C
:1000D000E90C0000E90C0000E90C0000E90C00004C
:1000E000E90C0000E90C0000E90C0000E90C00003C
:1000F000E90C0000E90C0000E90C0000E90C00002C
:10010000E90C0000E90C0000E90C0000E90C00001B
:10011000E90C0000E90C0000E90C0000E90C00000B
:10012000E90C0000E90C0000E90C0000E90C0000FB
:10013000E90C0000E90C0000E90C0000E90C0000EB
:10014000E90C0000000000000000000000000000BA
:10015000000000000000000000000000000000009F
:10016000000000000000000000000000000000008F
:10017000000000000000000000000000000000007F
:10018000000000000000000000000000000000006F
:10019000000000000000000000000000000000005F
:1001A000000000000000000000000000000000004F
:1001B000000000000000000000000000000000003F
:1001C000000000000000000000000000000000002F
:1001D000000000000000000000000000000000001F
:1001E000000000000000000000000000000000000F
:1001F00000000000000000000000000000000000FF
:10020000DEE61E284CBBCE8F025B0000EC00000037
:10021000C4690000010000000000000000000000B0
:10022000FFFF02910000000000000000000000003D
:10023000000000000500000000000000DEE61E28AF
:10024000EAAC45B8025B000020000000031000008B
:100250000100000001000000B54E0000DEE61E288F
:10026000EAAC45B8025B000030000000021000005C
:100270000000000001000000711400007D4F00002C
:10028000834F0000E74D000074000000DEE61E28EA
:10029000EAAC45B8025B000020000000011000003D
:1002A00002000000010000007D4E0000DEE61E2876
:1002B000EAAC45B8025B000020000000011100001C
:1002C0000300000001000000E94F0000DEE61E28E8
:1002D000EAAC45B8025B00002000000000120000FC
:1002E0000000000001000000191A000030B44FF0B7
:1002F000000310F8014B11F8015B013A84EA050490
:1003000043EA0403F5D1A3F101034FEAD37030BCF3
:10031000704700BF4FF0000310F8012B013943EA8A
:100320000203F9D1A3F101034FEAD370704700BF74
:1003300030B411F8014B12F8015B6C4000F8014B2E
:10034000013BF6D130BC704753B94AB9002908BF08
:1003500000281CBF4FF0FF314FF0FF3000F00CB809
:10036000ADF1080C6DE904CE00F008F8DDF804E00A
:10037000DDE9022304B07047704700BF2DE9F04764
:100380008C468E46089E154604461946002B40F0C2
:10039000D080724547D9B2FA82F74FB1C7F1200336
:1003A0000EFA07FCBD40BC4020FA03F343EA0C0CF4
:1003B0004FEA154EA8B2230CBCFBFEF80EFB18CC7E
:1003C00008FB00F943EA0C43994528D9EB1808F1DA
:1003D000FF3204D2994502D9A8F102022B44A3EBC3
:1003E0000903A4B2B3FBFEFC0EFB1C330CFB00F0B4
:1003F00044EA0344A04214D92C190CF1FF3304D26F
:10040000A04202D9ACF102032C44241A43EA024070
:100410001EB1FC40002334607360BDE8F0874246A3
:10042000DDE76346F1E7002A79D0B2FA82F3002BC8
:100430003FD01946C1F1200302FA01F500FA01F498
:100440002EFA03F20EFA01FE20FA03F3AFB243EAEA
:100450000E034FEA154EB2FBFEFC0EFB1C201A0CDD
:100460000CFB07F842EA004290455AD9AA180CF151
:10047000FF3004D2904502D9ACF102002A44A2EB2D
:1004800008029BB2B2FBFEFC0EFB1C220CFB07F722
:1004900043EA02439F4246D9EB180CF1FF3204D2E3
:1004A0009F4202D9ACF102022B44DB1B42EA00421C
:1004B00002E0AEEB020301224FEA154EAFB2200C70
:1004C000B3FBFEFC0EFB1C330CFB07F840EA0343B6
:1004D00098452AD9EB180CF1FF3004D2984502D97F
:1004E000ACF102002B44A3EB0803A4B2B3FBFEFC67
:1004F0000EFB1C330CFB07F744EA0344A74216D952
:100500002C190CF1FF3304D2A74202D9ACF102033B
:100510002C44E41B43EA00400F46114678E71F21B4
:1005200088E76046ABE76246BFE76046DBE76346C5
:10053000EFE7734506D916B9002108466DE7C6E90D
:10054000000EF9E7B3FA83F787B9734501D3824206
:1005500007D8841A6EEB030301209C461EB90021C4
:100560005BE73846FAE7C6E9004CF8E7C7F1200C2C
:10057000BB4000FA07F422FA0CF520FA0CF1BA405D
:100580001D432EFA0CF30EFA07FE4FEA154941EA15
:100590000E011FFA85FEB3FBF9F809FB18300B0CAE
:1005A00008FB0EFA43EA00439A4540D9EB1808F1DC
:1005B000FF3004D29A4502D9A8F102002B44A3EBE4
:1005C0000A0389B2B3FBF9F809FB183308FB0EFEE6
:1005D00041EA03418E452CD9691808F1FF3304D252
:1005E0008E4502D9A8F10203294443EA0040A1EB59
:1005F0000E01A0FB02984145CE46434602D306D1E8
:100600004C4504D20138B9EB020E68EB0503002E0D
:10061000A5D0B4EB0E0261EB030101FA0CFC22FA47
:1006200007F3F9404CEA0303C6E9003197E7404677
:10063000C5E74346D9E700002DE9F0430746002609
:1006400085B0DFF83490DFF8348001AD59F8044B01
:1006500098E807003C4485E807000C22294620461C
:1006600004F006FF00B91CB90136072EEED10024B4
:10067000204605B0BDE8F083B85D0000D05A000008
:1006800037B504461A480D4604F0D6F9E169194811
:1006900004F0D2F92146A06904F0B5FC40B916482F
:1006A00004F0CAF9204603B0BDE8304001F076BA44
:1006B0001248616904F0C0F90DF1060000F042FF34
:1006C00020B10F4804F0B8F903B030BD6069BDF83F
:1006D0000630984205D804F09BFC204600F000FE4E
:1006E000F2E7294680B200F0F3FE0028F3D0EBE7F2
:1006F000F8600000166100003E6100006E610000BD
:100700008461000070B54FF40041002000F098FDB6
:10071000064620B11B4804F08FF9002070BD1A482E
:1007200004F08AF901F0A4F8054601F0A7F80446A0
:1007300005F50070FFF780FF054604F50070FFF730
:100740007BFF0446D5B1B8B16A6943699A420DD3BB
:1007500031462846FFF794FF01212046FFF790FF1E
:100760000A4804F069F904F053FCD6E70121FFF7C9
:1007700087FF31462846F1E70146FBE70028EFD026
:100780000121EBE7AC610000DA610000F4610000D8
:10079000014B1B68184700BF28000020014B186060
:1007A000704700BF2800002030B5044685B00D46D4
:1007B00010220021684604F053FE02238DF8023017
:1007C000044B2A4621466846019303F0B3F805B06E
:1007D00030BD00BF9107000008B5044804F02CF9B3
:1007E000034804F029F9002008BD00BF1E62000084
:1007F00057620000014802F0EFBE00BFD45D000068
:1008000008B50348034A0021121A04F045F908BD4F
:10081000C800002048020020074808B5074A0849D8
:10082000121A04F03BF9BDE808400648064A074999
:10083000121A04F033B900BF28000020C8000020BD
:10084000206900000000002028000020F868000057
:1008500030BFFFF7FDBF00BF154B9A6A12F0007F53
:100860009A6A14BF1E201D2012F0807F9A6A18BF5A
:100870001F2012F4801F9A6A18BF022012F4002F62
:100880009A6A18BF212012F4802F9A6A18BF22207A
:1008900012F4003F9A6A18BF232012F4803F9A6A2C
:1008A00018BF24206FEA02426FEA12429A62704730
:1008B00000ED00E010B5194B0246986A9C6A10F4EE
:1008C000805F14BF1720162014F4006F9C6A18BFB5
:1008D0001820A40509D5986B986A000404D51AB1AC
:1008E0009A6A22F400429A6219200C4B9A6A12F416
:1008F000806F9A6A18BF1A20D2050CD49B6A13F431
:10090000005F18BF1C20054A936A43F47F4393623B
:1009100000230B7010BD1B20F5E700BF00ED00E0C9
:1009200010B51C4B0246986A9C6A10F0100F14BF59
:100930001120102014F0080F9C6A18BF1220A40781
:1009400009D5586B986A000604D51AB19A6A22F044
:1009500080029A6213200F4B9A6A12F0010F9A6A72
:1009600018BF142012F0200F9A6A18BF1520D40661
:1009700058BF9B6A074B9A6A920642BF5A6A22F492
:1009800000525A629A6A42F0FF029A6200230B7088
:1009900010BD00BF00ED00E070B5464B06465B6839
:1009A00000259CB0C3F3080385F31188BFF36F8F54
:1009B00002F07F40B0F17F4F11D102F00C00082807
:1009C0000DD010074CBF0E4601250022033B8DF8C9
:1009D0000720032B05D8DFE803F01E61655E2E4675
:1009E000F3E700249DF807309BB96822314602A83E
:1009F00004F029FD099B002D58D0C3F3080222B949
:100A00006FEA53236FEA43230993204602A904F0B7
:100A100047F81CB070BD274BDA6A9107E1D4DA6A57
:100A2000002ADEDBDA6A5200DBD55A69B16942F48A
:100A300080725A61BFF34F8FBFF36F8F31F8022C72
:100A4000596921F480715961BFF34F8FBFF36F8FE4
:100A500002F47F43B3F55F4F04D1D2B2022A01D131
:100A60003468BFE7134B9A6AD2B232B101200DF15C
:100A70000701FFF755FF0446B4E79A6A12F47F4F67
:100A800005D001200DF10701FFF714FFF3E79B6A82
:100A9000B3F5803FA5D3FFF7DFFEECE700200DF1B3
:100AA0000701E6E700200DF10701EDE76FF308030A
:100AB000AAE700BF00ED00E0064B5A6942F01002C1
:100AC0005A615A6942F480625A615A6922F00802F6
:100AD0005A61704700ED00E0EFF30880EFF3098101
:100AE00001B57246FFF758FF01BD00BF002080F33B
:100AF0001488BFF36F8F002080F30A8880F30B887F
:100B00000F4880F3088801F08BF800200D49086039
:100B1000BFF34F8F00F01AF8202080F311880A48A5
:100B20004FF40061401880F30988EFF3148002212C
:100B3000084380F31488BFF36F8F00F07BF8000048
:100B40004812002094ED00E04802002072B6002315
:100B500083F313884FF0FF300C4A03F12001013377
:100B6000102B42F82100F8D100234FF0FF30074A44
:100B700003F160010133102B42F82100F8D162B675
:100B8000BFF34F8FBFF36F8F704700BF00E100E0EE
:100B90001EF0040F0CBFEFF30880EFF309808169AA
:100BA00011F8021C0229FFD001B5724603F07EFF46
:100BB00001BD00BF40B2002807DB01234109034A01
:100BC00000F01F00834042F82130704700E100E050
:100BD000054B420953F82220012300F01F0003FABD
:100BE00000F01040704700BF00E100E040B2002874
:100BF00001F10101ACBF00F16040064B4FEA411129
:100C0000C9B2ABBF00F5614000F00F0080F80013DF
:100C10001954704714ED00E0044B054A23F07F039C
:100C20009360BFF34F8FBFF36F8F704700000000DA
:100C300000ED00E008B5FFF7EFFF104BD3F8882078
:100C400022F47002C3F88820D3F8882042F4A0026E
:100C5000C3F888204FF04042C3F83422BFF34F8FCF
:100C6000BFF36F8F0023E1EE103AFFF7C9FDFFF7E6
:100C7000D3FD00F02DF801F02BFA00BF00ED00E0ED
:100C800080B51E46074603F020FF0C46154600239C
:100C900083F30B880A4BA3F5006888F30B8883F372
:100CA0000988002004498847204629463246B8472B
:100CB00002488047FEE70000E74A0000F54A0000CE
:100CC000481200201022014B1A61704700ED00E02D
:100CD000002320210348C2180133412B82F800135E
:100CE000F9D1704700E100E008B5EFF30583064A4B
:100CF000103B02EBC30152F8330049688847BDE856
:100D0000084003F0FFBE00BF9058000008B5024B3A
:100D10001B689847002008BDC8000020034B044A08
:100D20001860937843F0020393707047C800002066
:100D30002C00002008B50649064821F00701C1F142
:100D4000005202F5802203F034FE002008BD00BFEF
:100D50004F920020CC0000200122024B0020C3F85B
:100D6000402570470090035048B1054B054A1B6869
:100D7000B3FBF2F35843044B43F0010318477047A9
:100D80003C00002040420F00205B000008B54FF6F9
:100D9000FF73044A13603F231046536001F02CF8A0
:100DA000002008BDD8000020084B70B5C31A0D46BE
:100DB00007499B10044659434022064803F0B1FE00
:100DC0002B4601462046BDE870401847E000002051
:100DD000B76DDBB63C580000402373B50B4C009355
:100DE000041B0B460D460A49A41061430646094AF6
:100DF000094803F0C2FE014628B130462B4602B036
:100E0000BDE87040184702B070BD00BFE000002090
:100E1000B76DDBB6ED4B00003C580000F8B5002282
:100E2000012105460520FFF7E1FE104801F00CF80E
:100E30000446B8B901F028F82F690D49384603F087
:100E400008FE031E09DB01263E642D69084905F1F1
:100E50001C0003F0FEFD031E02DA1C462046F8BD0E
:100E6000EE64FBE76FF00404F8E700BF710F0000C9
:100E7000DC5D000010B5EFF31184202383F31288AA
:100E8000BFF36F8F074A136823F00201DB0711607D
:100E900002D4012004F0CBF984F31188BFF36F8FE3
:100EA00010BD00BF300100200C22104B014602FB98
:100EB0000033002030B4D3E90E529863EFF3118071
:100EC000202484F31288BFF36F8F1C6C04F0C004DD
:100ED00044F002041C6480F31188BFF36F8F1DB1CE
:100EE0002B4630BC0248184730BC7047E000002059
:100EF0003C58000010B4EFF31180202282F31288D6
:100F0000BFF36F8F18490B6843F0020413F001031D
:100F10000C601AD04FF05023D3F80C14D3F80C34D3
:100F200013F0010311D0EFF3118182F31288BFF3A4
:100F30006F8F0E4A136C03F0C00343F00203136477
:100F400081F31188BFF36F8F012380F31188BFF302
:100F50006F8F23B100205DF8044BFFF7A5BF012080
:100F60005DF8044B04F05BB930010020E000002084
:100F700010B1012804D07047034B1B6C5B0701D1F3
:100F8000FFF792BF704700BFE000002008B5074898
:100F900004F001FA38B10648FFF7C0FE0448FFF735
:100FA000FDFB002008BD6FF01200FBE77458000045
:100FB000B50F00000A2838B50446074D04D1AB68C8
:100FC0000D2128465B689847AB6803485B68E1B22F
:100FD0009847204638BD00BF7458000040F2FF1CFF
:100FE0002DE9F04FDFF860E1DFF86081554D00EB4F
:100FF0008101814202D10020BDE8F08F0468C4F372
:10100000C72616F00806C4F3C327C4F3080340F04C
:101010008680240E634508BF4FF0FF331EF807702B
:10102000192C7FD8DFE804F00D1C2230252C307EEF
:101030007E7E7E33397E7E7E7E7E7E7E7E7E3C46DA
:10104000494CC2F80C355C1C32D05C0970D10124CB
:10105000DFF8F89004FA03FAC9F808A0A14640E0C6
:10106000C2F814355C1C23D00024F7E7C2F8083519
:10107000E9E70024C2F80835B3F1FF3F18D025E0B6
:101080000124C2F80C35F7E7C2F81035EAE7C2F8D8
:101090000835002FE6D10627E4E7C2F80C35F8E75B
:1010A000C2F860354488B3F1FF3F04F001040AD16F
:1010B00004309EE7C2F86435F4E7C2F86835F1E71A
:1010C000C2F86C35EEE7002CBFD101245FEA53195A
:1010D0002BD14FF00109DFF874A009FA03FBCAF81D
:1010E0000CB0D0F800A00AF4004BBBF1000F0CBF0D
:1010F0004E46012403F01F095B091CD108EB890946
:10110000D9F80032CAF3412A2B4043EA8A0343EA62
:101110000723334343EA4403C9F80032C8E76FF0BA
:10112000150069E76FF0850066E70023DB60FFDEEE
:1011300000239B60FBE7002309F1800953F8293065
:10114000F5E700BFF0F8FCFFE368000000258450DD
:101150002DE9F04104460D46476804F041F988B195
:101160004FF02008EFF31186314688F31288BFF361
:101170006F8F606803F074FD30BB86F31188BFF396
:101180006F8FEFE71D4B1B78002BE9D04FF0200845
:101190006426606803F064FD50B9012004F004F88F
:1011A000013EF6D1F4E786F31188BFF36F8FEFE7C6
:1011B000EFF31186314688F31288BFF36F8F6068B2
:1011C00003F04EFD0028EED0BB6900201D7063685F
:1011D000BA691B68C3F844250122C3F84825C3F83F
:1011E0002001D3F82041C3F85801D3F858019A6080
:1011F00081F31188BFF36F8FBDE8F08145020020B5
:10120000684620F007018D4601B5044803F038FD1B
:1012100003F078FCBDE8014085467047585800004F
:10122000684620F007018D4601B5044803F028FD0B
:1012300003F068FCBDE80140854670477458000023
:1012400040EA0103C3F30E0330B583B940F215152C
:10125000084CC90BC00B994201D1002030BDC21807
:10126000D2B202F5C07244F822500133F3E76FF0B6
:101270001500F3E700300050002230B585B06C4611
:10128000C0F80025D0F80C35134D0093D0F8143574
:101290000193D0F808350293D0F810350F48039326
:1012A00054F8041B4B1C0CD001F01F0349090DD14D
:1012B00005EB8303D3F80012014041F00201C3F8AB
:1012C00000120132042AEBD105B030BD0022803378
:1012D00052F82330FFDE00BF00258450F0F8FCFFF9
:1012E00010B50446C1692F4803F0A6FB0121204632
:1012F00000F092FB20B9BDE810402B4803F09CBBE6
:101300002A48FFF7B9FF2A48FFF7B6FF4FF0FF3230
:101310004FF05023C3F80823BFF36F8F72B600233A
:10132000244903F120000133102B41F82020F8D18B
:1013300000234FF0FF301F4A03F160010133102BEF
:1013400042F82100F8D14FF0E02300221A61D3F8CF
:10135000042D03F5506342F000725A605A6A22F479
:10136000E0225A62EFF31482920707D5EFF314825A
:1013700022F0020282F31488BFF36F8FBFF34F8F06
:10138000BFF36F8FE2699A60E269002383F30B88F1
:1013900083F30A88116881F3088883F30988064B70
:1013A00050689847AF620000C162000000800050A2
:1013B0000090005000E100E0010000200122024BFB
:1013C000C3F80025704700BF000084500022024B84
:1013D000C3F80025704700BF0000845070B5094D68
:1013E0002B780BB1002070BD0126074CC4F80065B6
:1013F00001F086F818B92E70C4F80005F2E76FF016
:101400000D00F0E7440200200000845090B5B1F1D7
:10141000005F83B002AF1FD2BBB16C46ADF5007D5B
:1014200002AB00934FF4007303F06FFDA5460E4B23
:10143000984213D00A33984213D00C3B984208BF0D
:101440006FF015000437BD4690BD084B00934FF474
:10145000004303F05AFDEAE70023F7E76FF01500B9
:10146000F0E76FF08500EDE70202F000481200207F
:1014700008B500F0A3FF034B984208BF6FF01500BA
:1014800008BD00BF0002F0001FB50446074A01ABCB
:1014900007CA83E807000C221946204603F0E8FF3C
:1014A00000280CBF2046002004B010BDDC5A00000C
:1014B00070B505460024054E56F8040B2844FFF786
:1014C000E3FF10B90134072CF6D170BD885E00002F
:1014D00073B50B46024606460D461648492103F0F1
:1014E000CCFA01200DF1060103F0BCFD044628B141
:1014F00045210246104803F0C0FA08E0BDF8063066
:1015000043B945210D4803F0B8FA6FF015042046A1
:1015100002B070BDB5FA85F1490941EA46010120E2
:1015200089B203F0E4FD04460028F0D002464521CC
:101530000348E0E7F66200002D63000076630000D8
:10154000A263000037B5054690B101200DF10601F8
:1015500003F0CAFD044630B14521074803F08DFA77
:10156000204603B030BDBDF806305B082B80F7E79E
:101570006FF01504F4E700BFDE6300002DE9F04FC3
:10158000804689B010460D4616461C46FFF77CFF84
:1015900040B91CB94521984803F06FFA002009B002
:1015A000BDE8F08FB369434504D0002CF6D1452146
:1015B0009248F1E724B9AB4202D045219048EBE7CD
:1015C00005F5007A5046FFF773FF864204D0002CE1
:1015D000E4D145218B48DFE7326A8B4B9A4206D033
:1015E000002CDBD14521894803F047FAD6E7D6F82D
:1015F0000CB037691CB94921854803F03EFA0DF15A
:101600000E00FFF79FFF024620B1002CC6D14521F6
:101610008048E9E77269BDF80E309A4206D2002C84
:10162000BCD145217C4803F028FAB7E7D6F81090E2
:10163000B9F5A03F02D8F368994504D2002CADD18A
:1016400045217648A8E716EB0B0B0BD27B1909D284
:10165000AE4207D39E4205D20BF1FF3B5D4501D858
:101660005B4504D8002C99D145216D4894E717EBD0
:1016700008072CBF4FF0010B4FF0000B0FD2F6699B
:1016800046450CD3BE420AD27319A3EB08035B682C
:1016900043450AD2002C81D1452162487CE7002CC9
:1016A0007FF47CAF4521604876E7BB42F2D24D44DF
:1016B0005E4B05F1050804AF93E8070087E80700D3
:1016C0000C223946284603F0D3FE48B10135A8451F
:1016D000564BF1D1002C7FF461AF452154485BE7B4
:1016E000EB689E4209D103F0D2FB024658B1002CB0
:1016F0007FF454AF45214F4876E7002C7FF44EAF7E
:1017000045214D4848E700F019F9064668B1002C1C
:101710007FF444AF02464521484803F0AEF97136E4
:101720007FF43CAF4921464836E7464A464B002CF9
:101730000CBF9046984600F0A7F8864205D3002CCF
:101740007FF42CAF4521414826E73946304600F06A
:1017500023F91028024610D010F1160F07D124B932
:10176000324649213A4803F088F90136E3E7002C74
:101770007FF414AF4521374836E764B93246492132
:10178000354803F07AF949219DF81F309DF8102063
:10179000324803F072F9A9F50073009305F1700265
:1017A0005346394605F13000C0470246A0B95E45B0
:1017B00006D11CB949212A4803F05FF90120EEE661
:1017C00024B95A464921274803F057F9584600F0F2
:1017D0000FF90BF1010BEAE710F1650F06D1002CB0
:1017E000C3D15721204803F048F9BEE7002C7FF40D
:1017F000D5AE45211D48F7E60364000026640000CD
:101800005C6400008C640000FFFF0291B86400007B
:10181000E2640000066500003065000073650000AA
:10182000A565000004660000D5650000E85A0000C8
:10183000346600009E66000068660000C166000015
:10184000E86600009D4E00007D4E000047680000E5
:10185000206700004C670000726700009B67000073
:10186000CE670000B4670000F06700001868000051
:10187000014803F0E2BB00BF3081FF00014803F0E4
:10188000DCBB00BF3481FF00014803F0D6BB00BFC2
:101890003881FF0010B50446FFF7F6FFA04217D9C4
:1018A00014200D4B00FB043003F0C7FB0B4A0C4B1C
:1018B00042EA0462824243EA046309D0834209D0C7
:1018C000002383F31188BFF36F8F0423184602DFD0
:1018D000002010BD0120FCE73C81FF000000FA5011
:1018E000FFFFFA502DE9F0410746FFF7CDFF142323
:1018F000114D03FB0055284603F017FD012803D0C6
:1019000000242046BDE8F0814FF000082C1DAE1CDD
:10191000304603F00AFD4045F2D9A01C03F005FD56
:101920000546204603F001FD8742EAD0023504EB6C
:10193000450408F10108EBE73C81FF002DE9F8437D
:10194000FFF7A2FF10281ED8102600244FF014081D
:101950004FF6FF790F4FFFF797FFA04202D8002004
:10196000BDE8F8832046FFF795FF48B108FB04F572
:10197000E81903F0DAFC484508D00235B542F7D142
:1019800001341436E7E76FF01500E9E76FF07000F7
:10199000E6E700BF4081FF00F8B504460E46FFF7BA
:1019A00079FFE8B1FFF770FFA0421CD914235C4314
:1019B0000E4F351D1E44E01903F03FFB030A05F8E6
:1019C000040C05F8033C030C000E05F8023C05F876
:1019D000010C0435B54204F10404ECD11020F8BD2B
:1019E0006FF01500FBE76FF00D00F8E74081FF0096
:1019F00010B50446FFF74EFF40B11420044B0549D3
:101A000000FB0430BDE8104000F022BB10BD00BF59
:101A10003C81FF000000FFFF2DE9F04F0F46064616
:101A200087B0002858D003F07EFB4FF00008044632
:101A3000B36B434554D94FF00009DFF8C0B04FF005
:101A4000000A5BF8043B0093284B53F8045B0193B6
:101A5000009B1D44264B93E8070003AB83E8070077
:101A600019460C22284603F003FD019B00B9ADB9CD
:101A70000AF1010ABAF1070FE7D11E4B09F101097A
:101A80009945DCD31FB10023626A13600BB9236A46
:101A900013BBE36808F101081C44C9E72B6A164A26
:101AA0009342EAD1AE42E8D0696B05F13C0388422B
:101AB000E3D025691A6995420AD19A69A5699542C8
:101AC00006D8E569954203D962695D69AA4309D0E0
:101AD000DA6801301344EAE7002007B0BDE8F08F70
:101AE0000120FAE7002FD4D0CEE700BFA45E0000AB
:101AF000F45A000001000000FFFF0291EC680000B2
:101B00002DE9FF41214803F00EFB002604461F4B40
:101B10001F4FD3F83880B04503D8002004B0BDE88B
:101B2000F081636A97E807001D6801AB83E807004E
:101B30000C221946284603F09BFC78B975B122693E
:101B40002B699A420AD1AB69A2699A4206D8E26926
:101B50009A4203D963696A6993430CD0256A75B1C7
:101B60000C4802F069FF002383F31188BFF36F8FE5
:101B70000423184602DFE36801361C44CBE706481D
:101B800002F05AFF636A1D60F5E700BF0002000023
:101B9000005B000078680000A1680000026A044B46
:101BA0009A4203D10349203000F052BA704700BF77
:101BB000FFFF02910000FFFF08B5EFF3108101293C
:101BC00003D003F0C6FA00B172B6074B1A6ABFF32E
:101BD0004F8F531C5A425A41012903D003F0B9FADE
:101BE00000B162B6104608BD0080FF0008B5EFF3F3
:101BF0001081012903D003F0ACFA00B172B6074B93
:101C0000DA69BFF34F8F012902F0010203D003F01C
:101C1000A0FA00B162B6104608BD00BF0080FF0008
:101C200010B503F096FA30B14FF050230022C3F8FC
:101C30001421C3F8182103F09FFA28B10122674B41
:101C4000C3F8382AC3F878254FF47F02D2F8303130
:101C5000BFF34F8FD2F83421BFF34F8FBFF34F8FB5
:101C6000C3F30B03092B05D1012A1EBF01225B4BD5
:101C7000C3F8782503F080FA18B10E22584BC3F848
:101C8000E42E03F066FA30B10022544BC3F80C275F
:101C90000122C3F810270022D30003F57F03D3F8F5
:101CA0000013BFF34F8F013108D0D3F80013013276
:101CB000D3F80433B2F5807F0B60EDD1EFF31084DD
:101CC000FFF794FF00284DD0BFF34F8F454BD3F85B
:101CD0000024012AFBD1C3F80425D3F80024012AEB
:101CE000FBD1012C03D003F034FA00B172B6FFF738
:101CF0007DFF58B13C4AD36923F00103D361BFF3A0
:101D00004F8F384AD2F80034012BFBD1FFF754FF34
:101D100068B1354A136A23F0FF0343F020031362CE
:101D2000BFF34F8F2F4AD2F80034012BFBD1012C87
:101D300003D003F00EFA00B162B60022294BC3F8BB
:101D40000425D3F80024012AFBD1BFF34F8F274984
:101D5000274BCA6802F4E0621343CB60BFF34F8F96
:101D600000BFFDE7FFF728FF0028ADD11F4AD2F8DA
:101D70008C3043F44063C2F88C304FF47F03D3F8C7
:101D80003021BFF34F8FD3F83431BFF34F8FBFF300
:101D90004F8FC2F30B02092A13D1013B012B10D93B
:101DA0001148144903680F4A8B420CBF5A23002381
:101DB000C2F8103EC36A8B420CBF5A230023C2F8FC
:101DC000003E0A4AD2F8883043F47003C2F88830E3
:101DD000BFF34F8FBFF36F8F10BD00BF00400050A7
:101DE00000A00350009003500080FF0000ED00E0D1
:101DF0000400FA05FA50FA50014B1860704700BF12
:101E00004C01002010B5054B1446186803F0CEF9BC
:101E10000028A4BF2070002010BD00BF4C0100208E
:101E20000123024A8340C2F8043570470070015014
:101E3000014B00201B68184750010020014B1B6814
:101E4000184700BF5001002010B50C4C237993B9FE
:101E5000012323710A4B0028206018BF184600F0A8
:101E600023F850B923680748002B08BF1846BDE87F
:101E7000104000F05BB86FF0770010BD50010020FB
:101E8000311E00003D1E000008B5064B1B6843B123
:101E90000520FEF79DFE20B9BDE808400520FEF7AD
:101EA00089BE08BD50010020054B0246187918B9BB
:101EB0001A6001221A7170476FF07700704700BFF7
:101EC000580100204FF050230022C3F80021D3F81E
:101ED0000021012208491A60096811B1C3F80423DE
:101EE0007047D3F80021002AFBD00022C3F800215C
:101EF000D3F80031704700BF580100204FF0502345
:101F0000D3F80423D2070DD5D3F8002152B1002213
:101F1000C3F80021D3F800210122C3F80823024BA3
:101F20001B681847704700BF58010020074B024646
:101F3000187938B91A6001221A714FF05023C3F88A
:101F4000182570476FF07700704700BF60010020D0
:101F50004FF0502310B5D3F818141E4C11F4803FE5
:101F6000D3F818241BD002F00302022A02D0012A5F
:101F700012D101224FF05023C3F818250022C3F8D4
:101F80000421D3F8042101229A602268A2B9D3F86F
:101F90000421002AFBD017E003F076F9E9E7D3F833
:101FA0001424D207E5D5D3F81C2402F00302013A29
:101FB000012AF1D822681AB10222C3F8042310BD05
:101FC000D3F80421002AFBD00022C3F80421D3F85F
:101FD0000431F4E7600100204FF05023D3F80423CC
:101FE00092071BD5D3F80421C2B100220221C3F805
:101FF0000421D3F80421C3F80813D3F81824D3F824
:10200000182402F00302012A03D0054B01201B68AB
:102010001847C3F81815C3F804139A60704700BF37
:10202000600100200022034BC3F88425C3F8042577
:10203000704700BF00900350044AD2F80834DB0711
:10204000FBD50160BFF35F8F704700BF0090035066
:10205000012208B5054BC3F88425C3F80425FFF712
:10206000EBFFBDE80840FFF7DDBF00BF0090035065
:1020700038B50A4B53F82040013053F82050A542A0
:1020800000D838BD606830B1037EDB0701D403F0AF
:102090006AF90834F3E723689847FAE7C05E00005E
:1020A000012208B5084B03201A70FFF7E1FF03F087
:1020B0009DF90420FFF7DCFFFEF724FB034A938918
:1020C00023F00103938108BD450200206801002030
:1020D00008B50020FFF7CCFF154B03F5006282F333
:1020E000088883F30A880025E023124C84F8223004
:1020F000E57725766576A57684F82050636A43F403
:10210000E023636284F82350FEF7D6FCFEF7DAFD85
:102110004FF0FF330120A362E362FFF7A9FF022023
:10212000FFF7A6FF2B462A4629460348FEF7A8FDDF
:102130004802002000ED00E0A120000030B102685C
:10214000034B04489A4208BF00207047024870477A
:10215000DD55AABB8208F0007108F00038B50D46C5
:102160000446B0B1A0220021043003F059F995B122
:102170000822294604F1640003F058F9082205F109
:10218000200104F1840003F051F90020034B236087
:1021900038BD0348FCE70348FAE700BFDD55AABB9A
:1021A0007108F0008308F0002DE9F74305460E465C
:1021B00099461146FFF7C2FF0446002840F084808C
:1021C000002E00F08580002900F08480B9F1200FF6
:1021D00040F0828005F14404082205F104082046FD
:1021E00003F024F905F1240708223146404603F0A4
:1021F0001DF906F120010822384603F017F902A95B
:1022000041F8049D4FF4807003F004F9002865D173
:102210004FF48073324A0121136093600823314ADE
:1022200000F034FB0121052308462F4A00F02EFB65
:102230000823424601211C2000F028FB08233A46CF
:102240000121032000F022FB224608230121022065
:1022500000F01CFB0823254A01211A2000F016FB80
:102260000523234A01211B2000F010FB0823214AEB
:102270000121142000F00AFB08231F4A0121152028
:1022800000F004FB082305F164020121162000F090
:10229000FDFA082305F184020121172000F0F6FA67
:1022A0000823164A01210B2000F0F0FA00F04AFB47
:1022B0000446019800F0D8FA114B002C18BF1C46B8
:1022C000A421284603F0AEF8204603B0BDE8F08311
:1022D0000C4CF9E70C4CF7E70C4CF5E7084CEFE732
:1022E00090108450185F0000905F0000D85E0000DE
:1022F0007C5F00003C5F00005C5F0000F85E000057
:102300008408F0007608F0008008F0008108F000F2
:10231000C2690C4B1A60826943F8042C426943F885
:10232000082C026943F80C2CC26843F8102C826810
:1023300043F8142C426843F8182C026843F81C2C0C
:10234000704700BF5C1684500C4B1B68C3610C4B7C
:102350001B6883610B4B1B6843610B4B1B6803615C
:102360000A4B1B68C3600A4B1B688360094B1B68E0
:102370004360094B1B680360704700BF5C168450C4
:102380005816845054168450501684504C1684505D
:1023900048168450441684504016845030B1026868
:1023A000034B04489A4208BF002070470248704718
:1023B000DD55AABB0202F0000002F00038B5044669
:1023C00068B1051D7021284603F02CF8284620220C
:1023D000044903F023F80020034B236038BD034871
:1023E000FCE700BFA45F0000DD55AABB0002F000BF
:1023F0002DE9F04385B015466F46274B04460E463F
:102400000FCB87E80F002DB94FF00009484605B003
:10241000BDE8F0832046FFF7C1FF81460028F5D1D3
:10242000231D0193636AA3BB236F8BB1C3F14008E3
:10243000A84528BFA84604F130003146184442465A
:1024400002F0ECFF236F464443442367A5EB0805E5
:10245000226F402A06D104F13001384600F0B4FB67
:102460000023236705F03F0835F03F0505D03146CE
:102470002A46384600F0A8FB2E44B8F1000FC3D01E
:102480004246314604F1300002F0C8FFC4F87080C3
:10249000BCE7DFF80890B9E70C5B00000C02F00025
:1024A0002DE9FF4104466F46134B0E460FCB87E8DC
:1024B0000F002046FFF772FF8046B0B9CEB1636AC5
:1024C000251D01953BB90123226F636204F13001A0
:1024D000384600F079FB2B46043E243453F8042B95
:1024E00012BAA34246F8042FF8D1404604B0BDE822
:1024F000F081DFF80880F8E70C5B00000502F000CF
:10250000084B1B681B0EF02B08D1074B1A68074BB2
:102510009A4205D10020064B18607047052070478D
:102520000620704728198450241A84500000E020A7
:102530000C1A8450002230B5134640F6FC75490051
:10254000023802F1A15404F5823490424FEA840427
:1025500002F10102CABF236025605B181E2AF0D178
:10256000034A13600B445360024B034A1A6030BDA8
:10257000781084508410845020F80F001E4B30B522
:102580001A4685B0196800910099CC07FAD500F178
:10259000A15000F582308000016813680193019B0F
:1025A000D807FAD5154B164C186820231F3090FB1E
:1025B000F3F0144D0138002810DA002301304001F7
:1025C00053B14FF00042A0F12001134204D1013871
:1025D00088424FEA5202F8D105B030BD1368039328
:1025E000039BDB07FAD5431823602B680293029BF9
:1025F000002BE3D10138DEE7B4108450AC108450D6
:10260000E4108450DC108450F0B51D6885B001F0F2
:102610001F040DB91F2C28D1174D2E462F68019786
:10262000019FFF07FAD500F1A15000F5823080002C
:10263000006835680395039DED07FAD51F2C00EB64
:10264000611018BFC9430D4D18BF01F01F0128606C
:102650000B480068029002981CBF00FA01F111605B
:102660004FF0000108BF1060196010684300C00FF0
:10267000136005B0F0BD00BFB4108450E410845066
:10268000DC1084500C4B890118603F3020F03F0073
:102690004030586099600948D96019615961996161
:1026A0001C3382B0196002680192019AD207FAD5F0
:1026B000196002B0704700BF90108450B41084506D
:1026C00038B5A0F12003B3F5426F05462CD88F280A
:1026D00026D800F1470300F16604DB064FEA5414E4
:1026E00000D0013464013F34A409013411B1A14286
:1026F0001AD30C464FF48050E300B0FBF3F02028CF
:1027000028BF202002B110600122084B21461A6028
:10271000FFF710FF28462146FFF7B4FF002038BD21
:1027200000F11F046409DDE70148F8E71C18845034
:102730002221F000464BF0B51D4689B01C6801947B
:10274000019CE407FAD5434B002413449B001A680C
:102750000B181E2B88BFC0F11E011F320B18520927
:102760005343B3F5806F84BF4FF48061B1FBF2F146
:10277000274688BF091ADFF8E4E000F1A150DFF82E
:10278000E0C000F58230A14233DC2B680493049B47
:10279000DB07FAD5304B1B68296805910599CF07EF
:1027A000FAD52E4C2E49236000231E46934203F196
:1027B000010040D11946002620F0010228488A4233
:1027C0003CD8296806910699CE07FAD525490968AB
:1027D000286807900798C007FAD5216000210C46A9
:1027E0001F488B422DD100201D499A422CD809B098
:1027F000F0BD2B680293029BDB07FAD503199B00FF
:102800001B682E680396039EF607FAD5CEF80030B3
:102810000023934203F1010306D1164623F001037E
:10282000B34204D80134AEE7CCF80070F1E7CCF83D
:1028300000700136F4E70E600346B7E70660013129
:10284000BDE704600131CCE708600133CDE700BF8C
:10285000B4108450240421147C108450D41084506B
:10286000D81084507810845008B540B12028014613
:102870004FF0070228BF20210020FFF75BFF002256
:10288000014B1A6008BD00BF1C188450F0B5294DDB
:1028900085B02C462E680096009EF607FAD500F10A
:1028A000A15000F5823080000568206801900198F1
:1028B000C707FAD52048214F056002EB8306B242D4
:1028C00029D100275A1C1D4E22F001029A4227D816
:1028D00023680293029BDE07FAD5194B0B449B0039
:1028E0001B681F335B099A4213D221680391039935
:1028F000C907FAD500211544056008469B1A0F4AFE
:102900008B4210D800205A1C0C4922F001029A4236
:102910000CD805B0F0BD52F804CBC7F800C0CEE724
:1029200037600133D2E710600131E9E70860013315
:10293000EDE700BFB4108450D4108450D8108450F8
:10294000240421142DE9F041814BA0B01D68986842
:1029500020331E461A680192019AD707FAD57D4B9B
:102960007D4A1A6032680292029AD407FAD57B4AED
:102970001A607B4A1446116803910399C907FAD576
:10298000784A1168C1F3402137680497049FFF0714
:10299000FAD5754F1F6027680597059FFF07FAD581
:1029A0001768002900F0CF80B90540F1CC8031686C
:1029B00006910699CF07FAD56C49196021680791ED
:1029C0000799C907FAD51168C1F3402137680897FC
:1029D000089FFF07FAD5664F1F6027680997099F70
:1029E000FF07FAD51268002900F0AF80910540F189
:1029F000AC8032680A920A9AD207FAD5564A1A600F
:102A000032680B920B9AD707FAD55A4A1A60316886
:102A10000C910C99CC07FAD55749196031680D9182
:102A20000D99C907FAD55549196031680E910E996B
:102A3000CF07FAD55249196031680F910F99CC0729
:102A4000FAD550491960504B1E46196810911099DB
:102A5000C907FAD53F4C4D4B236033681193119B46
:102A6000DB07FAD54A4B236033681293129BDF07CA
:102A7000FAD5484B23603A4B98461968139113993D
:102A8000C907FAD5324F386033681493149BDB07BB
:102A9000FAD5226033681593159BD807FAD53E4BBB
:102AA000236033681693169BD907FAD53B4B2360F6
:102AB00033681793179BDA07FAD5394B23603368CD
:102AC0001893189BDB07FAD5364B236033681993AC
:102AD000199BD807FAD5344B236033681A931A9B95
:102AE000D907FAD5314B236033681B931B9BDA0758
:102AF000FAD52F4B236000F01DFC08BBD8F800303E
:102B00001C931C9BDB07F9D53D6033681D931D9B0F
:102B1000D907FAD5274B236033681E931E9BDA072B
:102B2000FAD5254B2360D8F800301F931F9BDB0795
:102B3000F9D50C4B1B6813F4805F204B08BF184677
:102B400020B0BDE8F0811E48FAE71E48F8E700BF54
:102B5000901084508010845000100251C01F7229C0
:102B6000B410845088108450C0CF0129C01F0E2992
:102B7000C03F002940010249003184A800001649E5
:102B8000400108A180440888B0108450C044708877
:102B900080077A41C0077E4100006A4980061649D5
:102BA00040006E4900020021008220214082202145
:102BB0008082242140A161A100C861510308F10075
:102BC0000108F1000208F100324B2DE9F74F804671
:102BD0009246994644681A68002AFCD12E4B9B46BF
:102BE0001A68002AFCD14FF0FF30019100F094FCEC
:102BF000802000F097FC01230720284A284DA2F5E9
:102C00009E722B60C2F83C011360636A254F264E0A
:102C10003B60A36A20463360D8F8003042F8043C99
:102C2000D8F8083098470199D9F80030002BFBD12B
:102C3000BAF1000F20D104221C4B1A60D9F80030E1
:102C4000002BFBD1DBF800A0BAF1000FFAD1D8F8C5
:102C50000C30204698473B6863623368A362144B8C
:102C6000C3F800A0C3F844A1D9F80030002BFBD171
:102C70002B6003B0BDE8F08F236A4020012B04BF16
:102C80000B4A13600B4B1960C3F804A000F050FC12
:102C9000D4E700BF10198450201C845000198450C0
:102CA00018188450CC178450D0178450C8178450FB
:102CB00084168450281C8450544B10B5194698B083
:102CC0001A680192019AD207FAD5514B514A1A60FB
:102CD0000A680292029AD407FAD54F4A1A600A6823
:102CE0000392039AD007FAD54C4818600A680492F8
:102CF000049AD207FAD54A4A1A600A680592059AD8
:102D0000D407FAD5474A1A600A680692069AD2078B
:102D1000FAD5454A1A600A680792079AD407FAD585
:102D2000424A1A600A680892089AD207FAD5404ABD
:102D30001A600A680992099AD407FAD53D4A1A60BE
:102D40000A680A920A9AD207FAD53B4A1A600A68B8
:102D50000B920B9AD407FAD5384A1A600A680C927B
:102D60000C9AD207FAD5364A1A600A680D920D9A63
:102D7000D407FAD5334A1A600A680E920E9AD2071F
:102D8000FAD5314A1A600A680F920F9AD407FAD519
:102D90002E4A1A600A681092109AD207FAD52C4A65
:102DA0001A601A4B19461C681194119CE407FAD555
:102DB000174B1860086812901298C407FAD51A6069
:102DC0000A681392139AD007FAD5124A1A600A6851
:102DD0001492149AD207FAD51E4A1A600A681592FC
:102DE000159AD407FAD51C4A1A600A681692169AE0
:102DF000D007FAD5194A1A600A681792179AD207AB
:102E0000FAD5174A1A6018B010BD00BFB010845030
:102E100080108450009365210004319040966590A5
:102E20000083612100C3302100C364900081619060
:102E300000461021008111210041442100C32029B6
:102E40000C4610C80086312100C3602140C12829EA
:102E5000409665210013319040962529594614C8A3
:102E600040043249494B10B5194694B01A68009293
:102E7000009AD207FAD5464B464A1A600A68019270
:102E8000019AD407FAD5444A1A600A680292029A53
:102E9000D007FAD5414818600A680392039AD2070E
:102EA000FAD53F4A1A600A680492049AD407FAD500
:102EB0003C4A1A600A680592059AD207FAD53A4A3E
:102EC0001A600A680692069AD407FAD5374A1A6039
:102ED0000A680792079AD207FAD5354A1A600A6833
:102EE0000892089AD407FAD5324A1A600A680992F9
:102EF000099AD207FAD5304A1A600A680A920A9AE1
:102F0000D407FAD52D4A1A600A680B920B9AD20799
:102F1000FAD52B4A1A600A680C920C9AD407FAD593
:102F2000284A1A600A680D920D9AD207FAD5264AE5
:102F30001A600A680E920E9AD407FAD5234A1A60CC
:102F40000A680F920F9AD207FAD5214A1A600F4BDE
:102F500019461C681094109CE407FAD50C4B1860B5
:102F6000086811901198C407FAD51A600A6812927D
:102F7000129AD007FAD5174A1A600A681392139A60
:102F8000D207FAD5144A1A6014B010BDB01084509C
:102F900080108450809065210004099040966590CF
:102FA00080806121802008218020649000816190D0
:102FB0000046102100811121004144218020202958
:102FC000024610C80086092180206021402128295E
:102FD0004096652140962529594614C8504B10B596
:102FE0001C4696B01A680192019AD207FAD54D4B49
:102FF0004D4A1A6022680292029AD207FAD54B4AC9
:103000001A604B4A42EA804022680392039AD20730
:10301000FAD5186022680492049AD007FAD5454A76
:103020001A60A2F5800242EA814122680592059A5F
:10303000D207FAD5196022680692069AD007FAD507
:103040003D4A1A6022680792079AD107FAD53B4A8F
:103050001A6022680892089AD207FAD5384A1A608C
:1030600022680992099AD007FAD5364A1A6022686E
:103070000A920A9AD107FAD5334A1A6022680B924B
:103080000B9AD207FAD5314A1A6022680C920C9A30
:10309000D007FAD52E4A1A6022680D920D9AD107F0
:1030A000FAD52C4A1A6022680E920E9AD207FAD5E7
:1030B000294A1A6022680F920F9AD007FAD5274A38
:1030C0001A60216810911099C907FAD51A60144B3B
:1030D0001A46196811911199C807FAD5114B204960
:1030E0001960116812911299C907FAD51D49196022
:1030F000116813911399CC07FAD50B49196011681F
:1031000014911499C807FAD51749196011681591D7
:103110001599C907FAD5154A1A6016B010BD00BF37
:10312000B0108450801084504004419000862929BA
:10313000D81001C840144190401421294014652141
:103140000034409000310C90C0400C90C0302029D9
:1031500040960D9000416090031645C800861121ED
:1031600000416021594644C84014459040142D90B8
:10317000264870B5054688B004680094009CE607B0
:10318000FAD5234C23480460234C44EA83432C683B
:103190000194019CE407FAD50360930143EA82425B
:1031A00042F0104444F4C0442B680293029BDE07B3
:1031B000FAD504602B680393039BDB07FAD5174B02
:1031C00003608B0143EA814141F0104343F4C04363
:1031D0002E680496049EF607FAD503602B680593C3
:1031E000059BDE07FAD5046041F058412B68069331
:1031F000069BDC07FAD5016042F058422B68079322
:10320000079BDB07FAD5026008B070BDB010845090
:10321000C02102298010845080710098806118902C
:10322000354B8EB019461A680092009AD207FAD52B
:10323000324B334A1A600A680192019AD007FAD5D4
:10324000304A1A600A680292029AD207FAD52E4AC8
:103250001A600A680392039AD007FAD52B4A1A60BB
:103260000A680492049AD207FAD5294A1A600A68B1
:103270000592059AD007FAD5264A1A600A6806927E
:10328000069AD207FAD5244A1A600A680792079A62
:10329000D007FAD5214A1A600A680892089AD2071C
:1032A000FAD51F4A1A600A680992099AD007FAD516
:1032B0001C4A1A600A680A920A9AD207FAD51A4A70
:1032C0001A6008680B900B98C007FAD51A600A6854
:1032D0000C920C9AD007FAD5144A1A600A680D921B
:1032E0000D9AD207FAD5124A0E211A6000200D233A
:1032F0000F220EB0FFF73CBFB010845080108450F6
:1033000080430129406339218070012980205421A4
:1033100000D13490C0403490C0302029C0530D906B
:1033200000413890832308C880E3102100413821F0
:10333000CF4308C801232DE9F04192B0CDE9033312
:10334000624B1D461A680592059AD207FAD5604B62
:10335000604C2360604B19461A680692069AD7079C
:10336000FAD55E4B1A68D60400F1A8802A68079245
:10337000079AD007FAD55A4A22600A680892089A32
:10338000D207FAD51E68C6F30036002E40F09880AA
:103390001220FFF7F3F807461320FFF7EFF88742F4
:1033A0008CBF12201320FFF7E9F8471EFFF738FF04
:1033B00003AB01AA39461220FFF726F904AB804679
:1033C00002AA39461320FFF71FF900EB4800022834
:1033D00032D003283ED0012874D12B680993099B71
:1033E000DB07FAD53F4B23602B680A930A9BD8076B
:1033F000FAD53D4B23602B680F930F9BD907FAD565
:103400003A4B23602B681093109BDA07FAD5384BA0
:1034100023602B681193119BDB07FAD5354B236092
:10342000013F25D51023192218210020FFF7A0FE07
:10343000304612B0BDE8F0812B680B930B9BD90787
:10344000FAD52D4B23602B680C930C9BDA07FAD529
:103450002A4BCFE72B680D930D9BDB07FAD5284B42
:1034600023602B680E930E9BD807FAD5254BC1E736
:1034700003AB01AA39461220FFF7C6F804AB044695
:1034800002AA39461320FFF7BFF810EB440402D11B
:10349000FFF712FCC4E7FFF7E5FC022C08D0032C71
:1034A00009D0012C10D117211620FFF797FDB7E79F
:1034B00015211420F9E70F210E20F6E7124EB7E789
:1034C000124EB5E7124EB3E7124EB1E7B01084507A
:1034D00000084A5180108450B410845088108450E1
:1034E00000084E5100065A4940065E490004424118
:1034F0000014424940042E490006524940065649EC
:1035000000063A4940063E490608F1000708F10066
:103510000408F1000508F100014B1860704700BF76
:10352000081A8450014B1860704700BF041A845079
:10353000034A13681842FCD0024A106018467047CC
:10354000001A8450081A845010B50A4C23681BB125
:1035500001232360002010BD00F046F80028F7D0BA
:103560000138062803D8044B53F8200010BD034847
:1035700010BD00BF20020020C45F0000FE8FFFFFCF
:10358000BFF34F8F0549064BCA6802F4E06213434C
:10359000CB60BFF34F8F00BFFDE700BF00ED00E041
:1035A0000400FA0530B44FF0FE320025074B084CFA
:1035B00008494968C3F80024C3F80424C3F8082460
:1035C000C3F80C24C4F8005530BC084700108450E0
:1035D0000000845040000020024BD0E90012C3E9F3
:1035E000001270474000002008B500F013F830B911
:1035F00000F014F828B9064AC2F80C0A08BD0320E6
:1036000008BD00F009F800F043F8042008BD00BF31
:1036100000108450002070470020704710B51548F6
:1036200000F05EF800B110BD134800F059F8002812
:10363000F9D1124C204600F053F80028F3D1104B7A
:1036400010481C6000F04CF80028ECD10E4800F047
:1036500047F80028E7D10D4800F042F8014600285D
:10366000E1D100F039F8044608B900F04DF82046E1
:1036700010BD00BF600000205C000020580000204A
:1036800050000020540000204C0000204800002082
:1036900008B50B4800F02EF80A4800F02BF80A484D
:1036A00000F028F8094800F025F8094800F022F851
:1036B000084800F01FF8BDE8084000F00FB800BF50
:1036C000600000205C000020580000205400002012
:1036D0004C0000204800002000207047704700BFC9
:1036E00008B5034B02681B6810689847002008BDA6
:1036F0007800002008B5034B02685B6810689847A3
:10370000002008BD7800002070B5094C094D2069E3
:10371000AB68984718B1084B08485B689847002188
:10372000074AEB6811602069BDE87040184700BF88
:10373000640000207800002040000020E05F0000CE
:103740002402002010B5044650B1636813F0685F8E
:1037500005D0064A934202D000236260236010BD68
:10376000034B04485B689847EFE700BF2C5F5CA9F8
:103770004000002000600000C8B143680D4A934239
:1037800013D013F0685F0ED0012350E8002F1946C4
:1037900040E8001C9CF0000FF7D1012AF5D0BFF3E0
:1037A0005F8F0020704704487047044870476FF4EB
:1037B000E04070472C5F5CA9E98FFFFFEA8FFFFFB5
:1037C000034680B1426809498A420AD012F0685F14
:1037D00005D0BFF35F8F002210461A60704704487F
:1037E0007047044870476FF4E04070472C5F5CA955
:1037F000E98FFFFFEA8FFFFF10B5044620B10023D9
:10380000034A2360626010BD0248FFF7CBFEF6E773
:103810003A00003A286000002DE9F0410126B2424A
:1038200001DCBDE8F08107463B461F4613F8014B1B
:10383000002CF6D0252CF8D11D780237252DF3D099
:103840000023DFF8EC809C461C461F2C27D8A5F1EE
:10385000200EBEF1100F06D828FA0EFE1EF0010F42
:1038600053D12E2D3CD02E2D27D8242D33D02A2DC8
:1038700036D0BCF1000FD4D0B445D5D145F02007E7
:103880000B68A7F1650CBCF1020F01D9612F42D181
:10389000073323F00703083301360B60BFE77F2CA3
:1038A000DFD96C2D23D01DD8682D27D06A2D01D0EB
:1038B0004C2DDED144F4207408E0A5F1300EBEF1A9
:1038C000090FEED80A2404FB03E3202417F8015B58
:1038D000002DBAD1CDE7BCF1000F18D0B34218D0FB
:1038E0000023F3E7742DF1D07A2DEFD0C1E7250640
:1038F00048BF44F4007444F08004E7E7E50548BF9E
:1039000044F4007444F48074E0E70024DEE79C464D
:10391000E6E76325B2E7692D02D007D8632D03D00F
:10392000250601D5A405B3D40433B5E7732DF6E716
:10393000892801002DE9F04F837893B08046D0F8B4
:1039400004909C07CDE9081214D50B4600250B9274
:10395000187888B1252813D00133069341460135E4
:10396000C847002880F2F48398F8023043F004033B
:1039700088F802304FF0FF35284613B0BDE8F08FCD
:1039800093F801A09A1CBAF1250F0692E6D04FF0E9
:10399000000B5E465F465C461F2C23D8AAF120032D
:1039A000102B22D8DFE803F01521211B2121210B48
:1039B0002121211321182121090044F00104069B33
:1039C00013F801AB0693BAF1000FE5D11BE044F008
:1039D000020444F00404F2E744F00804EFE744F082
:1039E0001004ECE77F2C00F2F880BAF12E0F00F003
:1039F000D58000F2AE80BAF1240F00F0D580BAF184
:103A00002A0F00F0B680BBF1000F06D0099B5A4682
:103A10000BA908980B93FFF7FFFE002E4AF0200336
:103A2000B8BF24F040040493A3F16503BCBF002693
:103A3000A4B2022B04D94AF02003612B40F0888203
:103A40006FEA0A0A0AF0200307930B9B073323F05F
:103A5000070303F108020B92049A612AD3E900AB31
:103A600004F0400340F0E680002B079B50460CAA70
:103A700008BF4FF0FF360093594644F4C054334614
:103A800001F025FE01304FF0010CDDF830A0C3B28B
:103A9000B3420393A8BF03F1FF367023CDE9043C82
:103AA0000AF10903122B0DD90AF16303C62B40F268
:103AB000F4800AF2E73340F2CE7293428CBF0423C3
:103AC000032305939DF83430D80700F1E880A2075E
:103AD00000F1E880C4F3800B4FEA4B1B5FFA8BFBCD
:103AE00013F00C0F00F0EA80BBF1000F0CBF0323B2
:103AF0000423BB420EDA2007A7EB03070BD42F44A5
:103B000041462020C847002805F10105FFF62CAFEB
:103B1000BD42F5D10027BBF1000F07D04146584602
:103B2000C847002805F10105FFF61EAF9DF83430A7
:103B3000AD4C13F0080FAD4B08BF1C46264632466D
:103B400016F8010B002840F0B0802C1B02EB040B90
:103B50007AE1AAF13003092B3FD814F0400F4FF05F
:103B60000A020ABF44F0200402FB063602FB0737B4
:103B700025E7BBF1000F7FF422AF0B9A600652F8E5
:103B8000043B0B9201D51E4619E7002BA7BF44F05A
:103B900020041F465F4244F0280410E763063FF507
:103BA000EBAE44F040040AE7BBF1000F3DD014F047
:103BB000400A099B0BA908980CBF3A4632460B9362
:103BC000FFF72AFE0B9B53F8042B0B93BAF1000F5F
:103BD00001D01646F3E61746F1E6BAF16C0F16D09F
:103BE0000CD8BAF1680F19D0BAF16A0F03D0BAF144
:103BF0004C0F7FF408AF44F42074E0E6BAF1740F80
:103C00003FF4DDAEBAF17A0F3FF4D9AEFBE6200601
:103C100048BF44F4007444F08004D0E6E30548BF94
:103C200044F4007444F48074C9E65E46BB463446EE
:103C30003746C4E6002B049B08BF0626652B0ED131
:103C4000721C44F48054D2B21346112A4FF065011D
:103C50004FF0000228BF11239446049107E0049B13
:103C6000662B12D144F40054B4460122112350466D
:103C70005946CDE9002C0CAA00F014FBDDF830A069
:103C8000C3B20393022305930AE716F0FF02DBD1C8
:103C90006523944604930123E9E7022311E74FF0DB
:103CA0002D0B1DE74FF02B0B1AE7079B4146C01A5F
:103CB000C0B2C8470028BFF642AF55E614F4405FD3
:103CC00040F09680039B002E03F1480308BF0126B5
:103CD0006B44133B039A1AB113F8012D302A75D0A7
:103CE00014F0100F039B18BF33461AF1040F72DB58
:103CF000B24570DA534544F400547CDD0AF1010604
:103D00009E1B2AEAEA730133BBF1000F00D0013396
:103D1000002E72D0721C13449F42CCBFFF1A0027A2
:103D200014F0090F03D12F44BD426AD10027BBF123
:103D3000000F07D041465846C847002805F1010545
:103D4000FFF612AE230510D541463020C8470028A3
:103D5000FFF60AAE079B41460235C3F1780000F03A
:103D6000F800C8470028FFF6FFAD200704D4AB4693
:103D70007D195D454DD10027A10468D52AEAEA7373
:103D80007642AAEB030A039A013B05F1010B524567
:103D900089BF0CAA3020524450799E4241DC4146F2
:103DA0000493C84700280AF1010A049BFFF6DCAD22
:103DB0005A1C09D141462E200493C8470028FFF61B
:103DC000D3AD05F1020B049B5D46DCE7039A013A93
:103DD000D2B203927EE75E1E14F4006F059A14BF00
:103DE0000523032313448FE7D8680000D46800003C
:103DF000A10486D4F0E7002683E7E20648BF01333A
:103E00008AE741462020C847002805F101058BDAE2
:103E1000AAE541463020C84700280BF1010BA8DA7B
:103E2000A2E541460393C8470028FFF69DADE6068C
:103E30000AD5039B013307D105F1020B41462E2021
:103E4000C8470028FFF690AD5D465F4412E2414648
:103E50009DF83500C8470028FFF686AD002E5DDDD1
:103E600041462E20C8470028FFF67EAD01240CAB4A
:103E7000039A4146A346A242CABFE21830205079B5
:103E8000C8470028FFF670AD01340CABA642EFDA4C
:103E9000AC1C5C44049B4146079A981AC0B2C847C0
:103EA0000028FFF661ADBAF1000F4146B6BF2D20E4
:103EB0002B20CAF1000AC8470028FFF655AD059B24
:103EC000042B37D14FF47A7641460334BAFBF6F52A
:103ED00005F13000C0B2C8470028FFF645AD06FB2B
:103EE00015AA642641460134BAFBF6F505F1300007
:103EF000C0B2C8470028FFF637AD06FB15AA0A2650
:103F000041460134BAFBF6F505F13000C0B2C847AE
:103F10000028FFF629AD06FB15AA12E0E40601D43D
:103F20006C1CB7E741462E20C847002805F1020463
:103F3000B0DA19E5059B0234032BD2D0059B012B87
:103F4000DDD10AF1300004F1010B4146C0B277E740
:103F5000AAF16303122B00F2E580DFE813F01300EF
:103F60005400E300E300E300E3005400E300E30057
:103F7000E300E300E300FC00DD00E300E3002900D0
:103F8000E300AB000B9B01260DF1300A1A1D1B68E4
:103F90000B928DF8303020072CD50AEB060B5446D7
:103FA0005C4529D1A5EB0A0ABF1B04EB0A0B4BE7C2
:103FB0000B9B1A1D0B92D3F800A0A94BBAF1000F6E
:103FC00008BF9A4614F0400F504614BF31464FF0D8
:103FD000FF3101F05DFA0646DDE741462020C84783
:103FE0000028FFF6C1AC013CA642F6D32F443D1B8E
:103FF0002746D2E73C46F7E7414614F8010BC8478D
:104000000028CDDAB0E421060B9B32D5A2052BD5D2
:10401000073323F0070303F10802D3E900010B92F1
:1040200024F0100B00291FFA8BFB32DA40424BF4CC
:10403000806B61EB41010CAC0A23224601F034FA9B
:104040001BF0400FA0EB040200F09C802BF001035A
:1040500096429BB240F39F80BAF1000F40F09D80E2
:104060002BF011039BB21FE01A1D18680B92C117A9
:10407000D6E71A1DE00519680B9201D40846F6E749
:10408000A20547BF48B241F3C01108B241F3C031A5
:10409000C6E750EA0103CED16306CCD5002ECAD1C3
:1040A00024F011043246A3B2344640F206410B42DA
:1040B0006FD126E024F010040A23A4B214F0800C7F
:1040C0000B9A4CD014F4007115BF0732101D22F06A
:1040D00007020B900FBF106802F108010B91D2E9A3
:1040E000000150EA010247D124F0160B62061FFAC4
:1040F0008BFB45D5002E43D124F017043246A3B2E2
:10410000344619075FD4D90704D5A74272DD3C1B9A
:10411000A6183C46A34650E044F0100410234FF08C
:10412000780ACBE74AF02003782B04D1CAF1780350
:1041300043F01003C2E741462520C8470028FFF698
:1041400013AC41465046C8470028FFF60DAC023577
:10415000069BFFF7FDBB08234FF0000AAEE7111DD9
:1041600010680B9114F48071BBD014F400711ABF65
:10417000C0B2614680B2B4E724F006041FFA84FBA3
:104180000CAC5AE714465B46D9068ED5BAF1000F3F
:1041900005D10134B5E71446F6E73446F4E70234B6
:1041A000AFE741462020CDE90332C8470028FFF69B
:1041B000DBAB0BF1010BDDE903325F45F1DC2C1BBE
:1041C00004EB0B055C46D90616D541463020039218
:1041D000C8470028FFF6C8AB039ABAF1000F32D0E7
:1041E000023541465046C8470028039AFFF6BCAB4B
:1041F0002E441DE016468DE740F206410B42F7D0F3
:1042000013F0020F05F101054146039214BF2B2064
:10421000202013F4806F18BF2D20E4E741463020A2
:104220000392C847002805F10105039AFFF69CABED
:10423000731B9A42F2DB16460DF1300A2EB902EBDF
:10424000050B3F1B00E60135D2E7013E41460392D4
:104250001AF80600C8470028039AEFDAFFF784BB74
:10426000DC68000041462020C847002805F1010510
:10427000FFF67AAB7B1B002BF4DC69E71FB502ABC2
:10428000074A00934FF0CC3301F0EBF9DDE902016E
:10429000C00840EA4170C90805B05DF804FB00BFE2
:1042A000CDCCCCCC2DE9F04F9BB00F0D04460A933A
:1042B0009DF890300592C1F30A520C93C1F3130399
:1042C000C90F07917AB950EA03017ED105993023CD
:1042D00001274B71079B0A6043F002030B713846BC
:1042E0001BB0BDE8F08F40F2FF718A420BD103434F
:1042F000079B059A4FF0000714BF43F0080343F0F3
:1043000004031371EBE7A2F2354A43F4801523430B
:1043100004F001024FEA85080CBF27F001070127CE
:1043200048EA9478089208BF7F054FEA840602BFE6
:104330007F0DB7FA87F77F09BAF1000FC0F2B68098
:10434000504600F0EFF9BAF1030FC8BF01380490EE
:1043500000F0F4F9049B7C3016A9A3EB0A0A82440E
:10436000184600F07DFA12AB20462946019310ABA7
:1043700016AA02970093534601F0BCF8049B04462A
:104380000D46152B00F28E8014ABA94A30464146EB
:1043900000934FF0CC33DDE9109A01F062F9149BE1
:1043A000159A9B0843EA827303EB8303B34210D14F
:1043B0004146304600F0CAF9049B83428CBF4FF05F
:1043C00000084FF00108002715E01D46DFF864A241
:1043D0009DE7089B002B55D1013E48F1FF31F01BB2
:1043E00061F1000100F0B2F9049BDDF82080834206
:1043F0008CBF002701270C9B002B40F0C880DDF804
:10440000289000264FF00A0B06960996DDE9100168
:10441000FFF734FFDDE912A3CDE90D01194650463F
:104420000F93FFF72BFF0A4603460D990B908B4223
:104430000E9B72EB03010F9B80F0C480204629463F
:104440000F92FFF71BFF0B9B002E14BF4FF00008CD
:1044500008F001080F9A0BFB10460BFB03F50D9BB0
:10446000F6B204461093554514BF002707F0010724
:104470000E9B0D46139211930B9B1293069B0133D7
:104480000693C3E7B01C48F1000100F05FF9049BFC
:1044900083428CBF00200120B9EB00006AF10002CA
:1044A000CDE910024FF000084746A4E7CAF1000B1F
:1044B000584600F03DF9BAF1FF3F0CBF8146A0F12C
:1044C0000109ABEB090B0AEB09035846049300F012
:1044D00035F916A9A0F17D0A584600F04FF912AB44
:1044E000A9EB0A0A2046019310AB294616AA0093AD
:1044F0005346029700F0FEFFB9F1010F04460D4646
:104500000ED8089B13B94FF0010874E7109B4FF0C9
:104510000108119A013B42F1FF32CDE9103252E716
:10452000B9F13E0FBED84FF0FF33A9F12000C9F119
:10453000200103FA09F203FA00F023FA01F103FA69
:1045400009F3024326EA03060A4328EA020856EA68
:1045500008060CBF4FF001084FF0000833E700FBDE
:1045600002F60133A1FB001232448C4275EB0206C5
:10457000F5D2049A1344259A1344D20F9342B8BF3C
:1045800013460A9A9A42A8BF1A46914639E70A2169
:10459000002201230846E8E70BFB01FE0CF1010CA9
:1045A000A0FB0B017144844275EB010EF4D2CC45A3
:1045B0000DDDB9F1000F02D154EA050107D0012346
:1045C00009933BE70A2000214FF0010CEBE7002F95
:1045D00032D04FF00A0B50461946FFF74FFE0BFB47
:1045E00000F20B9152450E9026D1002E14BF4FF0D1
:1045F000000808F00108DDE91001FFF73FFE8A46D8
:104600000D9029462046FFF739FE0D9A0E9B0BFBB5
:1046100010460D4604461293F6B2CDE9102A0B9AC5
:104620009A460B9B1392069A01320692D3E700BF7B
:10463000CDCCCCCCCCFBFFFFB8F1000F05D0052EC4
:1046400003D104F001060436F6B2049B069A134423
:104650009846099B53B9DDE912239D4208BF944255
:1046600004D1089B002B49D1002F47D0042E94BFC2
:104670000026012630194FF00A024FF000034FF0D8
:10468000010745F100011446904271EB030537D252
:10469000F6B1B9451CDA0C9B6BB1259A08EB070300
:1046A00013440A9A012BB8BF01239A42A8BF1A46A5
:1046B000974291460CDD053008F1010807F1FF37FC
:1046C0004FF00A024FF0000341F10001FBF73CFEFE
:1046D0004F450FFA88F8059BA8BF4F464FF00009D9
:1046E0003FB2B84408F1FF3607F105089844B945D0
:1046F0000DDB059B079A1E601A71F0E50126B9E7EC
:1047000004FB03F50137A2FB04232B44BCE70A2278
:104710000023FBF719FE303209F1010908F8012DD9
:10472000E5E700BF014B5843800C7047413401005E
:10473000014B5843000D7047FB2E0B00024B5843B2
:10474000C00C0130704700BF4F93120070B5034694
:10475000094A00204FF0CC364FF0333506FB03F406
:1047600002FB0144A3FB023121449D4275EB01048D
:1047700001D30130F2E770BDCDCCCCCC1A232DE9AA
:10478000F04FB0FBF3FA334E03FB1A0389B0044633
:104790000D4606EB0A1653B9D6E90023C1E90023FA
:1047A000D6E90201C5E9020109B0BDE8F08F2A4A45
:1047B00002EBC303D3E9008904AB404649460093AA
:1047C000D6E9022300F04DFF06AB83460F46404674
:1047D00049460093D6E9002300F043FF00238146B9
:1047E000DDE9066216EB0B0652EB070828BF012332
:1047F00033B1049B059A013342F10002CDE9043242
:1048000020460391FFF79AFF07461A2000FB0AF0A3
:10481000FFF794FF3F1A32464346484603990097F4
:1048200000F036FF0D4A4FEA141C640004F01E032A
:1048300052F82C40DC4004F003042418304641F1C7
:104840000001DDE90423C5E900414146009700F07D
:104850001FFFA7E7F85B0000285B00004C6000002A
:104860002DE9F04F1A2700F11905DFF8E8A089B00B
:1048700004460E46B5FBF7F56F434FEA051B0AEBFE
:1048800005153A1A0AD1D5E90023C1E90023D5E973
:104890000201C6E9020109B0BDE8F08F2B4B03EB22
:1048A000C203D3E9008904AB404649460093D5E9E9
:1048B000022300F0D6FE5AF80B206B68013ACDE9CE
:1048C000020106A963F1000340460091494600F049
:1048D000C8FE8A46029900238146DDE906526D181A
:1048E000039952EB010828BF012333B1049B059AB9
:1048F000013342F10002CDE904323846FFF71EFFD2
:1049000007462046FFF71AFF3F1A2A464346484605
:104910005146009700F0BCFE0D4A4FEA141C64009B
:1049200004F01E0352F82C40DC4004F00304013470
:104930002418284641F10001DDE90423C6E90041BD
:104940004146009700F0A4FEA3E700BF285B0000EB
:10495000A0600000C85C0000704700EBC100408808
:1049600040087047F8B50346FFF7F7FFB0FA80F04C
:10497000C0F11F0003EB800CDCF81060CA00171DAB
:104980000C4606328DB256B9012101FA00F0D96801
:104990000143D960CCF81040DD539D52F8BDF100C1
:1049A0000431585AD85303EBC0009E52C5805D5263
:1049B000F4E7043A2DE9F843CC1D114424F0070430
:1049C00021F00706A6EB04084FEAD807B7FA87F2EA
:1049D0004FF00009C2F12405AD000735C2F12002F5
:1049E000ED0804604946A760C4F80C90920004F1F9
:1049F000100000F035FDAAB2530043F001036380BC
:104A00007B1B9BB204EBC5015800A4F800904880C2
:104A100024F83520A6F8029024F8083004EBC703E8
:104A20005A88294642F001025A802046BDE8F843E0
:104A3000FFF798BF002070470FB407B504A951F8DD
:104A4000040B0191FBF7B0FE03B05DF804EB04B07A
:104A5000704738B50C46054658B151B10B6843B1A3
:104A60004B6833B11C22002100F0FAFC00202C61BD
:104A700038BD6FF01500FBE770470FB407B504A908
:104A800051F8040B0191FBF78FFE03B05DF804EBC6
:104A900004B07047FEE7704700F0E2BC00F0D3BC02
:104AA000012801D1EFF3058300F08BBC01460068BB
:104AB000FFF7F6BF08B5FBF7CBFEBDE8084000F0F6
:104AC00021B800210120FFF7EBBF0023E1EE103AEF
:104AD000EFF3148323F0040383F31488BFF36F8F81
:104AE000BFF36F8F704761B662B680F31188BFF372
:104AF0006F8F7047EFF31180202383F31288BFF389
:104B00006F8F7047704708B5FCF700F9002008BDAB
:104B10000C220369C9B202FB0133186C00F00700D4
:104B2000704770B50346C9B20069EFF311862024BF
:104B300084F31288BFF36F8F0C2505FB0104246CEE
:104B400014F0C00401D0A24211D1012205FB0100E2
:104B50000264002086F31188BFF36F8F30B90C22F6
:104B60005B6802FB01335B689847002070BD4FF023
:104B7000FF30EFE78022FFF7D4BFF8B5069F054668
:104B80000469C9B2EFF3118C202080F31288BFF3BF
:104B90006F8F0C2606FB0146306C00F0070EBEF14D
:104BA000010F10D1376400268CF31188BFF36F8F8B
:104BB0003EB90C2041430C44C4E90E236B685B589A
:104BC00098473046F8BD00F0C00087420CBF6FF038
:104BD00077064FF0FF36E7E713B580240094FFF720
:104BE000CCFF02B010BD6FF08500704710B41C24DC
:104BF0000069CBB204FB030000215DF8044B1047B1
:104C000000F05BBBFDF7A4B930B543681360057ACB
:104C1000446804EBC504A34202D36FF0010030BD29
:104C20005C7908338C42F1D10020F8E743681B68B7
:104C3000D3F88004C3F88004704742681368D3F83F
:104C4000100150B10020D26912780A70C3F8100127
:104C5000D3F8102101221A6070474FF0FF307047DF
:104C600002680346D2F8580140B95B68DB0706D4F6
:104C7000D2F82001003818BF01207047012070478A
:104C800043681B68D3F80423D20517D5D3F8202135
:104C9000A2B1EFF31182202181F31288BFF36F8F4D
:104CA000D3F8201131B10021C3F82011D3F820111D
:104CB0000121D96082F31188BFF36F8FD3F8583187
:104CC000704713B501AA0446FFF79EFF002805DBD5
:104CD000019B226819791868FCF780F902B010BDB1
:104CE000F8B5054644680121E068FFF7EAFF6B6804
:104CF0001A682369C2F82435617D237D0B43A17DA9
:104D00000B43C2F86C356E680022D6E9004313F0FD
:104D1000010312D02F6904F10C01C4F8A02104F59D
:104D20009070C4F88C2007F1080200F059FA0028AE
:104D30003ADB387AFDF774F801230822C4F800251D
:104D4000B2690121C4F844250022C4F84825A160B5
:104D50006BB9D4F82031002BFBD0C4F82021D4F853
:104D600020310123E3604FF48073C4F80433D4F896
:104D70005831002BFBD00021C4F800156D68E8689D
:104D80002C68FFF79EFF0823C4F800352A7A52B931
:104D9000EB69C4F834350123C4F83835C4F8102160
:104DA000D4F8102123600020F8BD10B5044600227D
:104DB00001210920FBF71AFF0920FBF7FBFE204623
:104DC000BDE81040FFF78CBF10B50446002201215A
:104DD0000820FBF70BFF0820FBF7ECFE2046BDE8A0
:104DE0001040FFF77DBF30B589B0154601230A4654
:104DF0000146684600F0E1F8044640B920226946C1
:104E00002846FBF773FA002808BF6FF064042046B9
:104E100009B030BD2DE9F04190B09DF85C600446CA
:104E2000884615461F4601463346402208A800F032
:104E3000C4F838B91022404608A9FBF757FA20B940
:104E40006FF0640010B0BDE8F08133463946684623
:104E5000169A00F0B2F80028F4D1202233466946B1
:104E60000DEB020000F0A9F80028EBD120212B4621
:104E700022460DEB010000F01DF8E3E713B5012415
:104E80000194049C0094FFF7C5FF02B010BD08B563
:104E900000F00EF808B900F06FF808BD13B5002453
:104EA0000194049C0094FFF7B5FF02B010BD704759
:104EB000FCF794BAF0B5144606460F461D46ADB051
:104EC000FCF77CFA334621462A46009703A800F0F7
:104ED0008EFA0446FCF77AFAA4F57003A3F676037B
:104EE0000E2B0DD8DFE803F0080C0C0C0C0C0C0C8E
:104EF0000C0C08080C080E006FF015002DB0F0BD6A
:104F00002046FBE76FF06500F8E72DE9F84F1546FE
:104F10009A429246804689461E4628BF9A46AB462C
:104F2000FCF74CFA0027AF4205D30024FCF74EFAF9
:104F30002046BDE8F88F0A9B09EB070133B1002337
:104F40000AF10304A4089C420FD10A995246404634
:104F5000FDF74EFA04460028E8D1ABEB0A0B5E459C
:104F6000B246374428BFDA46DDE751F823000A9AF3
:104F700042F823000133E6E7FCF730BA0123FCF7DF
:104F800045BA38B504460D46FCF718FA29462046BE
:104F9000FDF786FA0446FCF719FAA4F57003A3F5A9
:104FA0000073052B04D8252222FA03F3DB0701D472
:104FB000204638BD6FF01500FBE7F0B59FB0044602
:104FC00001A80D4616461F46FCF752FA50B93B465B
:104FD0003246294601A8FCF719FA18B9214601A85A
:104FE000FFF7CFFF1FB0F0BD70B5054601F50070AB
:104FF0000C46FCF75DFA2146024601232846BDE82F
:105000007040FCF7BBBA0A4600230146FCF7B6BA6B
:10501000FFF74DBF4FF47F03D3F83001BFF34F8F3D
:10502000D3F83431BFF34F8FBFF34F8FC0F30B0072
:10503000A0F1090358425841704708B50246EFF302
:105040001081FFF7E7FF10B1012900D072B6126896
:10505000FFF7E0FF20B1BFF34F8F012900D062B608
:10506000104608BD10B50C46FCF73CFC58B154B1D5
:10507000023000F05AF94FF6FF72904203464FF0AB
:10508000000003D120806FF0150010BD2380FCE7E5
:105090002DE9F8430D461646FCF724FC044600B300
:1050A000FDB1023000F041F900278146B8460434D2
:1050B000BBB2994507D8002406B134600020A5F89A
:1050C0000080BDE8F883204600F02FF9C3439BB26F
:1050D0000137A21C002BEFD0984538BF98461446E4
:1050E000E6E76FF01500ECE70022FFF7D1BF37B518
:1050F0000D4601AA0DF10201FFF7CAFF044660B98F
:10510000BDF80230AB4208D2019848B1E94389B2F8
:1051100000F0FBF8204603B030BD6FF01504F9E74E
:105120006FF00B04F6E703465A6B00233C309A42BB
:1051300000D17047C16801330844F8E7FEF704BAAC
:1051400008B5FBF757FBFFF7A6FCBDE80840FEF7E4
:10515000FBB94FF47F03D3F83001BFF34F8FD3F87F
:105160003431BFF34F8FBFF34F8FC0F30B00A0F16B
:1051700009035842584170474FF47F02D2F830314A
:10518000BFF34F8FD2F83401BFF34F8FBFF34F8F70
:10519000C3F30B03092B08BF01280CBF012000201B
:1051A000704703460020184700F0D9B8024610B5F2
:1051B000116891B1B1FA81F3C3F11F00012383405B
:1051C00021EA0303D2E8EF4F8C4204D1C2E8EC3F5E
:1051D000BCF1000FF6D1EBD110BD6FF00B00FBE777
:1051E00070B5D0F880300646002B0C46154613DB10
:1051F000D1F88030002B0FDB00210846FCF702FEBF
:1052000048B92B7843F00043C6F880302B7843F040
:105210000043C4F8803070BD6FF01500FBE710B19B
:10522000012802D07047FCF793BEFCF74BBE18B1C3
:10523000012803D100F026B800F03FB8704708B548
:10524000FCF75CFEBDE80840FCF7C6BE38B54FF081
:1052500050240123C4F808336360002342F2107520
:10526000C4F80031D4F80031D4F80C24D4F80C344C
:10527000D20306D5DB0704D50120FFF795FF013DDA
:10528000F2D138BDFFF7E2BF38B54FF0502402230A
:10529000C4F808330123E360002342F21075C4F818
:1052A0000431D4F80431D4F81834DB0304D50120D8
:1052B000FFF77AFF013DF6D138BDFFF7E5BF4FF4A8
:1052C0007F03D3F83001BFF34F8FD3F83431BFF3EE
:1052D0004F8FBFF34F8FC0F30B00A0F1090358426B
:1052E000584170474FF0FF3382B0019300F0030044
:1052F00001AB03440A44914202D1019802B07047C5
:1053000011F8010B03F8010BF5E713B50222ADF814
:1053100006100DF106010446FFF7E4FF014624F0F4
:105320000300FCF795FE02B010BD10B5024620F058
:105330000301EFF31084FFF7C2FF10B1012C00D07E
:1053400072B60968FFF7BBFF20B1BFF34F8F012C86
:1053500000D062B6930718BF090C88B210BD08B11F
:10536000FBF702BD704710B5436904463BB9002006
:10537000E2684042537843F00103537010BD9847F0
:105380000028F4D00028B8BF4042FF28A8BFFF2063
:10539000E3681870ECE740B1C368587810F001007A
:1053A0001EBF1878B0FA80F040097047EFF3118300
:1053B000202383F31288BFF36F8FFEE708B5FFF752
:1053C000F5FF10B5EFF31184202383F31288BFF3A8
:1053D0006F8FFFF7F3FF84F31188BFF36F8F10BD5A
:1053E000EFF30580003818BF0120704770472DE9A2
:1053F000F041069F044615461E46FCF7AFFE38B93D
:105400003B46324629462046BDE8F041FCF7CCBE7B
:10541000BDE8F0810A460021FDF752B900F013B84B
:1054200000F01EB80A46002100F01AB801EB820213
:1054300004388A4201D10020704752F8043D1BBA5B
:1054400040F8043FF5E70A44431E914200D17047FB
:1054500010B511F8014B914203F8014FF9D110BD7D
:1054600002440346934200D1704703F8011BF9E759
:105470000139024410B5904201D1002005E00378C3
:1054800011F8014FA34201D0181B10BD0130F2E703
:105490000246014410B58A42134603D01C780132FB
:1054A000002CF8D1181A10BD2DE9F843C3F13709C3
:1054B0000746884603F01F055FFA89F91646384605
:1054C00041462A460023FAF73FFF4346D4B23A4604
:1054D00088460746092C84BF4C44E4B2AA424FF0E8
:1054E000000204F13004934106F8014BE7D2304644
:1054F000BDE8F8832DE9F04F051889B0904641EBDF
:105500000104029304AB284621460093D2E900230C
:1055100000F0A7F806AB07468946284621460093C7
:105520000025D8E9022300F09CF8DDE90423841863
:1055300051EB0306069B28BF0125D8E90012ED18A0
:10554000079B43F10003791849EB0202B94272EB61
:105550000902D8E9022134BF01200020A21846EB3D
:1055600001018018029A41F10001A042A2F1410A12
:1055700071EB0602CDF800A034BF012200225219BF
:10558000CDE9065343F1000300F082F8129BC3E912
:105590000001D8E90221DDE906530391149901299C
:1055A000D8E900E027D1A21A0399CDF800A066EB54
:1055B0000101774579EB000034BF01200020101A6B
:1055C00061F10001844276EB010234BF0122002226
:1055D000AA1A63F1000300F05BF8139BC3E9000112
:1055E000DDE9062320463146CDF800A000F050F852
:1055F00009B0BDE8F08F17EB070B49EB090C14EB72
:10560000040846EB0601BB457CEB090934BF0127C2
:10561000002718EB070741F10008F3457CEB000C6D
:1056200034BF01200020381A68F10001801A039A63
:1056300061EB02016D195B41A74278EB060234BFB2
:1056400001220022AD1843F10003874278EB0108E4
:1056500034BF01220022AA1A029DA5F1400500953F
:10566000B7E7F0B500240D4606469446A0FB0201BC
:105670002246059FE5FB0C12A446E5FB0324E3FB51
:10568000061C12EB0C0244F10004C7E90024F0BD33
:10569000F0B5059CC4F14007C4F12006A4F1200533
:1056A000E04002FA06F6BB4022FA05F5BA40334361
:1056B000C4F120062B4301FA06F6A4F1200530437D
:1056C00021FA05F5E140284319431043F0BD2DE9C7
:1056D000F0410446CE0FC1F30A55C1F3130140F265
:1056E000FF70167154EA01076BD1002D71D12C4661
:1056F0002946002B156060DB0C2B60DCC3F10D0527
:105700000120AD0005F1FF3CA5F12107C5F12106FF
:1057100000FA07F720FA06F600FA0CF037430618ED
:1057200047EB0708D6F1000E68EB480C013E48F144
:10573000FF38264008EA0108B04277EB080810DB82
:10574000C5F12008B5F1200624FA05F501FA08F89C
:1057500058BF41FA06F645EA080558BF3543ED073C
:1057600003D52018044641EB070104EA0E0401EAC0
:105770000C019DF8186018460D250532C6F1270664
:1057800004F00F03240944EA0174091163B9A84223
:105790000DDA013DF4D21AE01DB90125A5F2FF355D
:1057A000A7E741F48011F9E7092BC8BF9B193033F3
:1057B000A8425355B8BF2846EBE70023D9E70D238D
:1057C000D7E78542E8D146F0080600201671BDE80B
:1057D000F0818542E5D146F00406F6E7A0ABFF7FF5
:1057E000010000008D0D000000000000590D0000B8
:1057F00000000000000000003C5800003D51000087
:1058000000000000000000007458000000000000CC
:10581000585800008D0F000000000000350D0000FA
:10582000000000004151000000000000011B0000CA
:1058300000000000D90700000000000084620000A2
:10584000E85D0000985A0000C0000020E000002041
:105850001D0E0000000000009B620000005E0000C2
:10586000B45A0000C200002034010020AB4D0000FB
:1058700000000000A5620000445E0000B45A000071
:10588000C400002040010020C94D000000000000BD
:1058900000000000C34A000000000000C34A0000EE
:1058A00000000000C34A000000000000C34A0000DE
:1058B00000000000C34A00003F520000A351000056
:1058C00000000000C34A000000000000C34A0000BE
:1058D00000000000C34A000000000000C34A0000AE
:1058E00000000000C34A000000000000C34A00009E
:1058F00000000000C34A000000000000C34A00008E
:1059000000000000C34A000000000000C34A00007D
:1059100000000000C34A000000000000C34A00006D
:1059200000000000C34A000000000000C34A00005D
:1059300000000000C34A000000000000C34A00004D
:1059400000000000C34A000000000000C34A00003D
:1059500000000000C34A000000000000C34A00002D
:1059600000000000C34A000000000000C34A00001D
:1059700000000000C34A000000000000C34A00000D
:1059800000000000C34A000000000000C34A0000FD
:1059900000000000C34A000000000000C34A0000ED
:1059A00000000000C34A000000000000C34A0000DD
:1059B00000000000C34A000000000000C34A0000CD
:1059C00000000000C34A000000000000C34A0000BD
:1059D00000000000C34A000000000000C34A0000AD
:1059E00000000000C34A000000000000C34A00009D
:1059F00000000000C34A000000000000C34A00008D
:105A000000000000C34A000000000000C34A00007C
:105A100000000000C34A000000000000C34A00006C
:105A200000000000C34A000000000000C34A00005C
:105A300000000000C34A000000000000C34A00004C
:105A400000000000C34A000000000000C34A00003C
:105A500000000000C34A000000000000C34A00002C
:105A600000000000C34A000000000000C34A00001C
:105A700000000000C34A000000000000C34A00000C
:105A800000000000C34A000000000000C34A0000FC
:105A900000000000C34A0000E74B0000754B000007
:105AA000D94B000000000000114B00000000000076
:105AB000000000003B4C0000511100002D4C000084
:085AC0006A6800000300000009
:105AD000DEE61E284CBBCE8F025B0000DEE61E28F1
